:020000040800F2
:10000000082D0020FD010008050200080702000875
:10001000090200080B0200080D02000800000000A1
:100020000000000000000000000000000F020008B7
:100030001102000800000000130200081502000869
:10004000170200081702000817020008170200082C
:10005000170200081702000817020008170200081C
:10006000170200081702000817020008170200080C
:1000700017020008170200081702000817020008FC
:1000800017020008170200081702000817020008EC
:1000900017020008170200081702000817020008DC
:1000A00017020008170200081702000817020008CC
:1000B00017020008170200081702000817020008BC
:1000C00017020008170200081702000817020008AC
:1000D0001702000817020008791A00081702000822
:1000E00017020008170200081702000800000000AD
:1000F0000000000000000000000000000000000000
:1001000000000000000000001702000817020008AD
:10011000170200081702000817020008170200085B
:10012000170200081702000817020008170200084B
:10013000170200081702000817020008170200083B
:10014000170200081702000817020008170200082B
:1001500000F002F800F042F80AA090E8000C824497
:100160008344AAF10107DA4501D100F037F8AFF274
:10017000090EBAE80F0013F0010F18BFFB1A43F085
:1001800001031847441D0000641D0000103A24BFFD
:1001900078C878C1FAD8520724BF30C830C144BFEC
:1001A00004680C607047000000230024002500262E
:1001B000103A28BF78C1FBD8520728BF30C148BFCA
:1001C0000B607047642900F06D80782900F0A680EC
:1001D000002070471FB51FBD10B510BD00F064FAB8
:1001E0001146FFF7F7FF01F05DFD00F082FA03B45E
:1001F000FFF7F2FF03BC00F089FA000009488047CE
:1002000009480047FEE7FEE7FEE7FEE7FEE7FEE7F8
:10021000FEE7FEE7FEE7FEE704480549054A064B10
:10022000704700005D1700085101000808270020F2
:10023000082D002008290020082900200FB40449B7
:1002400010B503AA029800F0D3F910BC5DF814FBB6
:100250001000002070B5044685690068C10601D50C
:10026000302600E02026C00707D070BDD4E9012168
:1002700030469047206A401C20626D1EF6D570BD46
:1002800070B5044685690078C00707D170BDD4E910
:10029000012120209047206A401C20626D1EF6D567
:1002A00070BD00002DE9F041064600241068752954
:1002B000314616A510D0AFF30080002802DA404284
:1002C00013A507E031688A0701D512A502E04907A6
:1002D00004D511A5012401E0AFF3008000210A221A
:1002E00006F1240709E0B0FBF2FCB0FBF2F302FBDD
:1002F0001C00303078541846491C0028F3D123469E
:100300002A463046BDE8F04100F018B90000000070
:100310002D0000002B0000002000000070B50446F6
:100320000D4621461068AFF300802188090502D5EB
:100330000F4A7A4402E00E4A7A440E32002104F158
:10034000240305E000F00F060009965D5E54491C89
:100350000028F7D120780023000704D5702D02D0A3
:1003600009B1022311322046BDE8704000F0E6B822
:10037000561B00002DE9F05F894604464FF0000A45
:10038000DFF824B1FB44C0F820A02046E16888478C
:1003900000287DD0252806D0D4E901219047206A85
:1003A000401C2062F1E700255F462046E16888474F
:1003B0002028064607DB312E05D2B81910F8200C8C
:1003C00008B10543F1E7A80701D525F00405C4F8F5
:1003D0001CA00027C4F818A02A2E09D0304601F02E
:1003E00030FC38B304EB8708303EC8F8186019E0D9
:1003F00059F8041B204604EB87029161E1688847A5
:10040000012F064618D1E069002820DA25F02005E2
:100410001DE0D8F8180000EB800006EB40003038F3
:10042000C8F818002046E1688847064601F009FC34
:100430000028EED1012F0AD02E2E08D12046E168E7
:1004400088477F1C0646022F45F02005C4DBA069C3
:10045000002803DA404245F00105A061E80701D019
:1004600025F01005A6B1A6F14100192802D82036C2
:1004700045F400654A463146204625604D46FFF763
:10048000A1FE60B1012807D0ED1D25F0070000E0B6
:1004900007E000F1080978E705F1040975E730463F
:1004A0007AE7206ABDE8F09F2C1B0000032A40F287
:1004B000308010F0030C00F0158011F8013BBCF106
:1004C000020F624498BF11F801CB00F8013B38BF1E
:1004D00011F8013BA2F1040298BF00F801CB38BF2C
:1004E00000F8013B11F0030300F09480083AC0F0DB
:1004F000088051F8043B083A51F804CBA0E80810F2
:10050000F5E7121D5CBF51F8043B40F8043BAFF324
:100510000080D20724BF11F8013B11F801CB48BF7E
:1005200011F8012B24BF00F8013B00F801CB48BFB4
:1005300000F8012B70477047704770472DE9F0476E
:100540000D4699469246044600F124080168880643
:1005500004D5E06921F01001216000E00120A842EB
:1005600001DD471B00E00027A1697A1902EB0900B1
:10057000081AA0612078C00602D42046FFF76AFE60
:10058000002608E0D4E901211AF806009047206A05
:10059000401C761C20624E45F4DB2078C0060AD54C
:1005A0002046FFF757FE06E0D4E9012130209047AE
:1005B000206A401C2062381EA7F10107F4DC07E026
:1005C000D4E9012118F805009047206A401C2062F8
:1005D000281EA5F10105F3DC2046FFF751FE207827
:1005E000000602D50220BDE8F0870120FBE70000ED
:1005F000074B70B50D467B4400F043F8044628468F
:1006000001F044FB10B14FF0FF3070BD204670BDCB
:100610009916000010B5203AC0F00B80B1E81850D0
:10062000203AA0E81850B1E81850A0E81850BFF4DC
:10063000F5AF5FEA027C24BFB1E81850A0E818507B
:1006400044BF18C918C0BDE810405FEA827C24BFCF
:1006500051F8043B40F8043B08BF7047D20728BF5D
:1006600031F8023B48BF11F8012B28BF20F8023BAC
:1006700048BF00F8012B704701694A1C02610878E5
:10068000704700B58FB0CDE90131002105910549D2
:100690007944CDE9031011466846FFF76BFE0FB0B1
:1006A00000BD0000E5FFFFFF754600F02BF8AE46E9
:1006B00005006946534620F00700854618B020B56E
:1006C000FFF7AAFDBDE820404FF000064FF00007FD
:1006D0004FF000084FF0000B21F00701AC46ACE8EA
:1006E000C009ACE8C009ACE8C009ACE8C0098D4657
:1006F000704710B50446AFF300802046BDE81040B7
:10070000FFF775BD00487047A82600200149182052
:10071000ABBEFEE726000200704700002DE9F14F56
:100720000027009840B9254800F00AFA0446DFF88F
:100730008C8008F1DC0806E02048203000F000FA48
:100740000446DFF87C801FA0FFF778FD214621A03A
:10075000FFF774FD04F2FF70C0F3C729002626E0FE
:100760004FF4006101FB06801F4900F0D5F9DFF866
:1007700078A0A9F10100B0420BDD002505E01AF8D0
:1007800005003844C7B2681C85B2B5F5006FF6DBCA
:100790000BE0C4F30A0B002505E01AF80500384405
:1007A000C7B2681C85B25D45F7DB701CC6B24E450A
:1007B000D6DBC7F1FF073846BDE8F88F243F0008B5
:1007C000008002085B424F4F544C4F414445525DFC
:1007D000000000004C656E677468204F544120662D
:1007E000696C653A25640A00600800200EB500F0C7
:1007F00003FB029000F01EFB01900BA0FFF71EFD13
:10080000BDF804000090BDF80630BDF80820BDF822
:100810000A1009A0FFF712FDDDE90110884201D09E
:1008200001200EBD0020FCE75B424F4F544C4F416E
:100830004445525D0000000043757272656E743A63
:1008400025642E2564202D204E6578743A25642E6B
:1008500025640A002DE9F04100F0D8FA0446012091
:10086000FFF75CFF054612A0FFF7E8FC2A46214689
:1008700013A0FFF7E3FCAC4202D00120BDE8F081F9
:1008800000F0CEFA07463A461349144800F074FACD
:1008900000F0BCFA04460020FFF740FF054600F0D8
:1008A000C9FA0646304600F0CFFA0020E6E700001D
:1008B0005B424F4F544C4F414445525D0000000095
:1008C0004265666F7265204352433A30782532782C
:1008D0002D30782532780A00004000080080020898
:1008E00070B504466568206880F3088800BFA84793
:1008F00070BD10B500F02BFA10BD000010B514A0AB
:10090000FFF79CFC16A0FFF799FCFFF76FFF00288C
:1009100016D00FA0FFF792FC16A0FFF78FFCFFF791
:1009200099FF30B10AA0FFF789FC1BA0FFF786FCF6
:100930000CE007A0FFF782FC1AA0FFF77FFC05E0A0
:1009400003A0FFF77BFC1AA0FFF778FC10BD0000A6
:100950005B424F4F544C4F414445525D00000000F4
:100960005374617274204F54412070726F636573C9
:1009700073210A00446966666972656E7420766543
:100980007273696F6E2C206E65656420746F2062CF
:1009900065204F5441210A00436F707920666169D8
:1009A0006C0A0000436F707920646F6E65210A0045
:1009B0004B6565702063757272656E742076657222
:1009C00073696F6E0A00000010B50248FFF788FFD8
:1009D00010BD00000040000830B5044604254FF467
:1009E000302000F085F80546042D17D10C48006929
:1009F00040F002000A49086108464461006940F07D
:100A0000400008614FF4302000F072F805460448B9
:100A1000006941F6FD71084001490861284630BD72
:100A20000020024004200B49C96801F0010109B10E
:100A300001200EE00749C96801F0040109B1022054
:100A400007E00449C96801F0100109B1032000E082
:100A500004207047002002400348006940F08000F5
:100A600001490861704700000020024078B5064641
:100A70000C46042500200090E80200F039F80546F5
:100A8000042D24D11348006940F001001149086188
:100A90003480E80200F02CF80546042D10D1B01C7B
:100AA0000090200C00990880E80200F021F805462B
:100AB0000848006941F6FE7108400649086106E0F1
:100AC0000448006941F6FE71084002490861284661
:100AD00078BD0000002002400248034948600348F6
:100AE000486070472301674500200240AB89EFCD85
:100AF00000B502460423FFF795FF034603E0FFF726
:100B000091FF0346521E012B01D1002AF7D102B9F1
:100B10000523184600BD704702460B46C2F30A0083
:100B200008B101207047002105E0106818601B1D06
:100B3000121D481C81B2B1F5007FF6DB0020F1E701
:100B400001460868704770B504460D46C4F30A00B4
:100B500008B1012070BDFFF7BFFF2046FFF73CFF43
:100B6000002607E020462968FFF780FF241D2D1D81
:100B7000701C86B2B6F5007FF4DBFFF76DFF002036
:100B8000E8E7000070B504460D4604F0030008B124
:100B9000012070BD601CC00AC60207493046FFF73D
:100BA000BBFF0548C4F3880140F821500146304698
:100BB000FFF7C9FF0020ECE7500000204FF0E021D4
:100BC000096921F004014FF0E0221161C21700EB26
:100BD0005272C2F3C702074B1A701946097801EB2B
:100BE0004102C2EBC1114FF6FF7202EAC101024A93
:100BF00011807047000000200200002001460D4ACD
:100C000012884A434FF0E0235A6100229A61012280
:100C10001A6100BF4FF0E022106900F001021AB122
:100C200000F48032002AF5D000224FF0E0231A6150
:100C30009A617047020000202DE9F041024600252C
:100C40000026002000230024002791F803C00CF0A8
:100C50000F0591F803C00CF0100CBCF1000F03D08D
:100C600091F802C04CEA050591F800C0BCF1000FF4
:100C700031D0146800202BE04FF0010C0CFA00F387
:100C8000B1F800C00CEA03069E4220D183004FF069
:100C90000F0C0CFA03F7BC4305FA03FC4CEA0404FE
:100CA00091F803C0BCF1280F06D14FF0010C0CFAEB
:100CB00000FCC2F814C00AE091F803C0BCF1480F70
:100CC00005D14FF0010C0CFA00FCC2F810C0401C1A
:100CD0000828D1D31460B1F800C0BCF1FF0F34DD97
:100CE000546800202EE000F1080C4FF0010808FACB
:100CF0000CF3B1F800C00CEA03069E4221D1830038
:100D00004FF00F0C0CFA03F7BC4305FA03FC4CEA56
:100D1000040491F803C0BCF1280F05D100F1080CC0
:100D200008FA0CF8C2F8148091F803C0BCF1480F1F
:100D300007D100F1080C4FF0010808FA0CF8C2F8CE
:100D40001080401C0828CED35460BDE8F08110B557
:100D5000FFF7E1FE10BD10B502460B460020002152
:100D600004E0545C0444E0B24C1CA1B29942F8DBAC
:100D7000C0F1FF0010BD00002DE9F04706460D460A
:100D800017463C46C6F30A0010B9C5F30A0008B17D
:100D9000BDE8F08707F2FF704FEAD0294FF0000856
:100DA00023E0B4F5006F0ED312493046FFF7B4FECE
:100DB00010492846FFF7C7FEA4F5006406F5006653
:100DC00005F500650DE00B493046FFF7A5FE22460C
:100DD0000849284600F062F806EB840605EB840516
:100DE000002408F1010000F0FF08C845D9D300BF76
:100DF000CEE700006018002010B50348FFF7A0FE02
:100E00000446204610BD0000203F000810B50348EE
:100E1000FFF796FEC4B2204610BD0000483F000810
:100E200010B50348FFF78CFE0446204610BD0000B5
:100E3000443F000810B50348FFF782FE04462046F1
:100E400010BD0000403F000810B50446214602488E
:100E5000FFF798FE10BD0000203F000870B5044663
:100E60000025254629460248FFF78CFE70BD00008C
:100E7000483F000810B5044621460248FFF782FEAD
:100E800010BD0000443F000810B50446214602484A
:100E9000FFF778FE10BD0000403F00082DE9F74F36
:100EA0008AB00D461746BB46002005904FF40079E6
:100EB0003A4668460A9900F0CBFE9DE80F0006AC62
:100EC0000FC4079E069804904FF0000820E02749C1
:100ED0000498FFF721FE344605E02449286841F8CC
:100EE00024002D1D641C4C45F7D320490498FFF7BE
:100EF0002AFEA9EB060A0598401C80B20590002640
:100F0000049800F500600490ABEB0A0B08F10108AF
:100F10000898401E4045DAD814490498FFF7FCFDB4
:100F2000089801280AD9002405E01049286841F8EA
:100F300024002D1D641C5C45F7D30BE0344605E00E
:100F40000A49286841F824002D1D641C0998304482
:100F5000A042F5D805490498FFF7F5FD0598401C17
:100F600080B205900DB0BDE8F08F00006010002049
:100F700010B500F075FF02480249086010BD00007E
:100F80007C2400201400002010B54F480078002871
:100F900062D14E48C06800285ED04D4800780028D5
:100FA00075D14C480078012818D14848C0680428F9
:100FB0001CD3002406E048480119444800F018FFFB
:100FC000601C84B2042CF6DB00204149087001202B
:100FD0004249087000203F49087007E03E49C91C9B
:100FE0003A4800F005FF01203C4908703B48007872
:100FF000012868D100203949087039480068C07854
:1010000037490968897840EA012036490880344820
:1010100000680078AA2829D131480068407855280E
:1010200024D12A48C0680988884216D3002407E0E2
:10103000201D294A8118254800F0DAFE601C84B280
:10104000284800888442F3DB0020214908700120F1
:10105000204908701C49087035E001201C490870BF
:1010600000201C490870184908702CE0002405E095
:101070001949601C085C0855601C84B2032CF7DB1E
:10108000002014490870124908701CE0FFE70F485F
:10109000C06814490988884215D3002407E0201D40
:1010A0000D4A8118094800F0A3FE601C84B20D4867
:1010B00000888442F3DB00200549087001200249C2
:1010C00008700449087010BD1C0000206024002036
:1010D0001B0000201D0000207C2400201E0000209A
:1010E000140000201800002070B505460C460B487F
:1010F000007808B9002070BD002008490870084831
:101100000068007920700748028805480168491D79
:101110002846FFF7CBF903480088ECE71C000020C5
:1011200014000020180000200148007870470000DB
:101130001C00002070B5002100230F22C47804B3E6
:10114000154C246804F4E064C4F5E064210AC1F19C
:101150000403CA40447804FA03F18478144021431C
:1011600009010E4C0678A155047804F01F050124EE
:10117000AC4005786D11AD0005F1E025C5F80041E2
:1011800009E0047804F01F050124AC40044D067802
:10119000761145F8264070BD0CED00E000E400E05B
:1011A00080E100E010B5034804782046FFF756FEC2
:1011B00010BD0000A82500202DE9F04705463A485B
:1011C00000680078000638490968497840EA01401B
:1011D00035490968897840EA012033490968C978A6
:1011E00040EA01063048006840792F4909680979CA
:1011F00040EA01242C480068801D075D21462A48EA
:101200000068801DFFF7A7FD80462748006800F1B1
:10121000060A26A0FFF712F8314626A0FFF70EF8BF
:1012200022A0FFF70BF8214627A0FFF707F81FA021
:10123000FFF704F83A46414626A0FEF7FFFF474570
:1012400007D01AA0FEF7FAFF27A0FEF7F7FFBDE8C8
:10125000F087E11704EB91718910A4EB810131B1A2
:1012600012A0FEF7EBFF23A0FEF7E8FFEFE704F183
:101270000900854206D00DA0FEF7E0FF22A0FEF790
:10128000DDFFE4E7A146E11704EB91718A102549DF
:1012900070185146FFF702FE04A0FEF7CFFF22A010
:1012A000FEF7CCFF00BFD2E7240000205B4F544183
:1012B0005D0000004C6F636174696F6E3A20307896
:1012C0002538780A000000004C656E6774683A257E
:1012D000640A00004352433A3078253278202D20AA
:1012E00030782532780A000057726F6E67204352BB
:1012F00043210A0057726F6E67204E6272206F663C
:101300002044617461210A0057726F6E67206E7508
:101310006D626572206F66206D657373616765210C
:101320000A00000000800208466C61736820646F48
:101330006E65210A0000000010B505484078044998
:10134000097840EA01242046FFF794FD10BD000013
:10135000A825002070B504480478467846EA04457C
:101360002846FFF791FD70BDA825002029B1064A47
:10137000D2690243044BDA6104E0034AD269824332
:10138000014BDA61704700000010024029B1064AA3
:1013900092690243044B9A6104E0034A92698243D2
:1013A000014B9A6170470000001002402DE9F041A6
:1013B00000210022002500230026002400278C465F
:1013C000DFF86081D8F8048008F00C0121B104290D
:1013D00007D0082959D109E0DFF84C81C0F8008016
:1013E00058E0DFF84881C0F8008053E0DFF834812E
:1013F000D8F8048008F47012DFF82881D8F8048047
:1014000008F48035920C0D2A01D0921C00E00622CF
:1014100035B9DFF81C8102FB08F8C0F8008033E022
:10142000DFF80081D8F82C8008F48036DFF8F480EB
:10143000D8F82C8008F00F0808F1010446B9DFF84D
:10144000EC80B8FBF4F808FB02F8C0F800801BE061
:10145000DFF8D080D8F82C80C8F3031808F1010712
:10146000DFF8C080D8F82C80C8F3032808F1020CFC
:10147000DFF8B880B8FBF7F808FB0CF8B8FBF4F815
:1014800008FB02F8C0F8008004E0DFF89C80C0F898
:10149000008000BF00BFDFF88C80D8F8048008F01F
:1014A000F0010909DFF88C8018F80130D0F80080CD
:1014B00028FA03F8C0F80480DFF86880D8F80480C0
:1014C00008F4E061090ADFF86C8018F80130D0F800
:1014D000048028FA03F8C0F80880DFF84880D8F8BC
:1014E000048008F46051C90ADFF8488018F8013018
:1014F000D0F8048028FA03F8C0F80C80DFF82480C4
:10150000D8F8048008F44041890BDFF82C8018F8E3
:101510000130D0F80C80B8FBF3F8C0F81080BDE8BB
:10152000F08100000010024000127A0040787D0136
:1015300000093D00280000203800002010B500F010
:1015400001F810BD0CB50020019000903F480068E4
:1015500040F480303D49086000BF3C48006800F41A
:10156000003000900198401C0190009818B9019833
:10157000B0F5A06FF1D13548006800F4003010B12B
:101580000120009001E000200090009801285CD12B
:101590002F48006840F010002D4908600846006898
:1015A00020F0070008600846006840F0020008606C
:1015B0002648406825494860084640684860084613
:1015C000406840F4806048600846C06A214908408D
:1015D0001E49C8620846C06A1F4908431B49C862C1
:1015E0000846006840F08060086000BF1748006847
:1015F00000F000600028F9D01448406820F47C1006
:10160000124948600846406840F4E81048600846BF
:10161000006840F08070086000BF0C48006800F06F
:1016200000700028F9D00948406820F003000749FD
:1016300048600846406840F00200486000BF034828
:10164000406800F00C000828F9D10CBD00100240E1
:101650000020024000F0FEFF44060100F0B500212A
:10166000002000230024002200250026354F7F683B
:1016700007F00C0121B1042908D008294BD10BE057
:10168000314FDFF8C8C0CCF800704AE0304FDFF8C7
:10169000BCC0CCF8007044E02A4F7F6807F470109B
:1016A000284F7F6807F48033800C0D2801D0801C00
:1016B00000E0062033B9274F4743DFF890C0CCF84D
:1016C000007027E01F4FFF6A07F480341D4FFF6A48
:1016D00007F00F077A1C44B91D4FB7FBF2F74743D9
:1016E000DFF868C0CCF8007014E0164FFF6AC7F34B
:1016F00003177D1C134FFF6AC7F30327BE1C144F4B
:10170000B7FBF5F77743B7FBF2F74743DFF83CC089
:10171000CCF8007005E00C4FDFF830C0CCF800705A
:1017200000BF00BF074F7F68C7F30317DFF828C06B
:101730001CF80710054F3F68CF40DFF810C0CCF809
:101740000070F0BD0010024000127A003C00002042
:1017500040787D0100093D004000002010B516488A
:10176000006840F0010014490860084640681349C9
:1017700008401149486008460068114908400E4970
:1017800008600846006820F4802008600846406829
:1017900020F4FE0048600846006820F0A050086071
:1017A0004FF47F0088600020C862FFF7C7FE4FF04B
:1017B00000600449086010BD001002400000FFF006
:1017C000FFFFF6FE08ED00E010B504460F48046088
:1017D00026200F4908700020487088700120C870CA
:1017E0000846FFF7A7FC262000280DDB00BF00BF3E
:1017F00000F01F02012191404209920002F1E02213
:10180000C2F8001100BF00BF00BF10BD0C000020D7
:101810000800002010B5044601214804FFF7A6FD8A
:1018200001210520FFF7B2FD18201749C8700420D8
:101830000880032088701548FFF7FEF9042012493C
:10184000C870082008801148FFF7F6F910480460B6
:1018500000200F498880C880088188810C20488139
:101860000C4800F079F940F225510A4800F01EF9C1
:10187000012240F22551074800F049F901210548AD
:1018800000F02CF910BD0000040000200008014009
:10189000500800200044004010B504462146054889
:1018A00000F0CBF900BF8021024800F023F90028A6
:1018B000F9D010BD0044004010B506A0FEF7BEFCF4
:1018C00006A0FEF7BBFCFFF753FB08480849086079
:1018D00010BD00005B4F54415D000000496E69740B
:1018E0002070726F63657373210A0000A8250020C1
:1018F0002400002010B5FFF717FC002868D03549F8
:101900003548FFF7F1FB3549088035A0FEF796FC16
:101910003048017834A0FEF791FC2E480078082862
:1019200054D2DFE800F053040B121D262F382CA0F0
:10193000FEF784FC34A0FEF781FC48E028A0FEF707
:101940007DFC33A0FEF77AFC41E025A0FEF776FC93
:1019500031A0FEF773FC21480088FFF72DFC36E02C
:101960001FA0FEF76BFC32A0FEF768FCFFF7E4FC5B
:101970002DE01BA0FEF762FC31A0FEF75FFCFFF735
:1019800011FC24E016A0FEF759FC30A0FEF756FC2F
:10199000FFF7E0FC1BE012A0FEF750FC2FA0FEF7C3
:1019A0004DFC6420FFF72AF900BFBFF34F8F2E488C
:1019B000006800F4E0602D490843001D2A490860D2
:1019C000BFF34F8F00BF00BF00BFFDE700BF00BFE8
:1019D00010BD000020000020A825002022000020CB
:1019E0005B4F54415D000000486173206E657720B5
:1019F0006D6573736167652E204865616465723A31
:101A000030782530780A00005374617274210A001E
:101A100053746F70210A000055706461746520442E
:101A200061746120746F20466C617368210A000044
:101A30005772697465204C656E677468210A0000EE
:101A4000577269746520435243210A0057726974C2
:101A5000652056657273696F6E210A005265626F68
:101A60006F74210A000000000CED00E00000FA0590
:101A700010B5FFF789FA10BD10B540F2255109489D
:101A800000F038F860B1074800F0D2F8C4B2204640
:101A900005490968884740F22551024800F00FF8CF
:101AA00010BD0000004400400C00002001F4007252
:101AB000B2F5007F00D100BFCA430280704710B565
:101AC0000022002340F66A14A14200D100BF0A128E
:101AD00001249440A3B2DC43048010BD21B182896B
:101AE00042F40052828104E082894DF6FF731A406D
:101AF0008281704702460020B1F5007F00D100BF0F
:101B000013880B400BB1012000E000207047F0B5B6
:101B10000346002400260025002040F66A17B9423B
:101B200000D100BF1846C1F3421401F01F0601277F
:101B300007FA06F5012C01D10C3004E0022C01D18A
:101B4000103000E014301AB107682F43076002E03C
:101B50000768AF430760F0BD2DE9F04786B0054642
:101B60000E460024A24600BFA1460027B08900B15E
:101B700000BF2F462C8A4CF6FF700440F0880443C7
:101B80002C82AC894EF6F3100440B08831890843AA
:101B9000718908430443AC81AC8A4FF6FF4004408E
:101BA000B0890443AC8201A8FFF700FC1F488742BC
:101BB00002D1DDF810A001E0DDF80CA0A88900F446
:101BC000004040B10AEBCA0000EB0A10316849003E
:101BD000B0FBF1F807E00AEBCA0000EB0A1031682D
:101BE0008900B0FBF1F86420B8FBF0F00401200993
:101BF000642101FB1089A88900F4004040B1322023
:101C000000EBC900B0FBF1F000F00700044308E06E
:101C1000322000EB09106421B0FBF1F000F00F005E
:101C200004432C8106B0BDE8F08700000038014075
:101C300001468888C0F308007047C1F3080282801B
:101C4000704730380A2801D20120704700207047C1
:101C5000FFB501EB820303F2FF75ED0AEC0201F020
:101C6000030505B1FFBD4D1CED0AED020095009D79
:101C70004D1BAD080195009D651BED0A0295039271
:101C80009DE8E01080E8E01000BFEBE7014600208F
:101C9000704770B504460D46E0B2FFF7FDFD2046E3
:101CA00070BD000008B5FFF759FDFFF7D7FC4820CD
:101CB000FEF784FF4FF4E130FFF7ACFD00F0D0F801
:101CC0001B48FFF781FD1BA0FEF7B8FAFEF711FED7
:101CD000FEF714FEFFF7F0FD03E069461D4800F033
:101CE00087F81C48C0680028F7D11BA0FEF7A6FAA9
:101CF00000BF1848C0680028FBD06946154800F0AE
:101D000077F89DF80000312805D11DA0FEF796FA5E
:101D1000FEF75AFE02E01FA0FEF790FA06E0FFF77A
:101D2000E9FDFFF7A5FE0120FEF768FFF7E70000D9
:101D3000791E00080A2D2D2D2D2D2D2D2D2D2D2D0B
:101D40002D0A476F20746F2070726F72616D210AC7
:101D500000000000602400205761697420666F72E3
:101D6000204576656E740A09090931202D205275C7
:101D70006E0A09090932202D204F5441210A000022
:101D800052756E20746F2070726F6772616D210AD8
:101D90000000000052756E20746F204F5441210ADC
:101DA0000000000070B504460E4615462660206807
:101DB00020B909A0FEF742FA012070BD206828442E
:101DC0006060A5600020E060206860612068A0611C
:101DD000012020610020F0E74661696C20746F20CB
:101DE00020696E69742042756666657200000000A5
:101DF00070B504460D46E06808B9002070BD28465D
:101E00002269A169FEF752FB2169A0690844A0611B
:101E10006168A069884201D12068A061E068401E25
:101E2000E0600120EAE713B50446D4E902108842D5
:101E300001D100201CBD01A9D4E90420FEF736FB26
:101E4000D4E904100844606161686069884201D186
:101E500020686061E068401CE0600120EAE7000063
:101E600010B54FF4806202490248FFF79BFF10BD96
:101E7000602000206024002010B50446214602485E
:101E8000FFF7D1FF10BD0000602400203031323355
:101E9000343536373839414243444546403058009E
:101EA00030313233343536373839616263646566D0
:101EB000403078000400000800000000000000022C
:101EC0000001000010000000E81E000800000020D3
:101ED000500000008C010008381F0008500000204E
:101EE000B82C0000A801000800000000000000005D
:101EF00000000000000000000000000000000000E2
:101F000000000000000100000000000000000000D0
:101F1000000000000102030401020304060708098F
:101F20000204060800A24A040000000000000000AD
:081F3000010203040607080981
:04000005080001519D
:00000001FF
